:020000041000EA
:1000000000B5324B212058609868022188439860DF
:10001000D860186158612E4B002199600221596106
:100020000121F02299502B49196001219960352056
:1000300000F044F80222904214D00621196600F024
:1000400034F8196E01211966002018661A6600F04E
:100050002CF8196E196E196E052000F02FF8012189
:100060000842F9D1002199601B49196000215960AB
:100070001A491B48016001219960EB211966A021F2
:10008000196600F012F800219960164914480160C1
:100090000121996001BC002800D000471248134993
:1000A000086003C880F30888084703B5996A0420EC
:1000B0000142FBD001200142F8D103BD02B5186610
:1000C0001866FFF7F2FF186E186E02BD00000240BE
:1000D000000000180000070000035F00212200005C
:1000E000F4000018222000A00001001008ED00E03C
:1000F00000000000000000000000000074B24E7A12
:1001000000200420F7010010C3010010C5010010F9
:10011000C1010010C1010010C1010010C101001097
:10012000C1010010C1010010C1010010C701001081
:10013000C1010010C1010010C9010010CB01001065
:10014000CD010010CD010010CD010010CD01001037
:10015000CD010010CD010010CD010010CD01001027
:10016000CD010010CD010010CD010010CD01001017
:10017000CD010010CD010010CD010010CD01001007
:10018000CD010010CD010010CD010010CD010010F7
:10019000CD010010CD010010CD010010CD010010E7
:1001A000CD010010CD010010CD010010CD010010D7
:1001B000CD010010CD010010CD010010CD010010C7
:1001C00000BE00BE00BE00BE00BE00BE00F04BF888
:1001D000103800BEF2EB8871C4360510EC360510FD
:1001E0003402001090A31AE700202149086006C8D5
:1001F00081F3088810471F48006800282FD10DA4FC
:100200000ECC002902D000F012F8F9E71A491B4A77
:10021000002000E001C19142FCD1194988471949E9
:1002200088471949884700BEFDE701C901C29A42C3
:10023000FBD37047EC360510C0000020741D002071
:10024000A05305100000042000000420A053051056
:1002500000100420001004200000000070470B482C
:1002600002F0AAFF0047EFF30580C0B2704700001C
:1002700008ED00E0000000D0781D00203438002098
:1002800019170010410300102D18001057560000D8
:1002900006005250ABB36053BC75041006005250B8
:1002A000861C0302CC750410060052505422A29DF5
:1002B000E075041005005250DE65F468A053051087
:1002C000F8B5C04610B5064C2378002B07D1054B76
:1002D000002B02D0044800E000BF0123237010BDB2
:1002E000781E002000000000A0670410044B10B529
:1002F000002B03D00349044800E000BF10BDC046F6
:10030000000000007C1E0020A067041070B50400EF
:100310000D00012805D0002C02D1074B9D4207D0CB
:1003200070BD054B9942F6D1044804F061FDF2E737
:10033000024804F06DFDF3E7FFFF0000EC340020FD
:1003400010B504F0A5F91C4804F034FB1B4B1868E9
:1003500004F0BDFAD02424068023DB00A3628023AE
:100360009B00A362013BFF3BA362FF3B636201333F
:1003700063620E336362103363622033636240331F
:1003800063620F490F4804F067FA0121102000F062
:1003900059F80521112000F055F80121122000F034
:1003A00051F80121132000F04DF880239B02636275
:1003B0006361002010BDC04625040010D035002028
:1003C00040420F000000044010B502490120FFF731
:1003D0009DFF10BDFFFF000010B5D0231B061B6D55
:1003E000DB0714D5D0231B065A68D20F0A490A60CE
:1003F0005A680021094A11605A68920A0123134081
:10040000074A1360FA20800000F0DAFDE5E7D02308
:100410001B06FF221A6510BDC4110020C811002060
:10042000CC11002010B5D0231B06FF221A65044909
:10043000102001F0B7FB0121102001F0A3FBFEE723
:10044000D903001010B58300084A944663441C6821
:1004500040226240C02414408022520113431C6099
:10046000C000034B9C466044416010BD04C0014085
:1004700000400140EFF3108072B6034B1B68002B65
:10048000FBD0BFF35F8F70472C0100D0BFF35F8FAD
:10049000024B00221A6080F3108870472C0100D0B4
:1004A000F8B506000C001500FFF7E4FFE308F718A5
:1004B000F15C07222240012393400B4205D1DBB2BD
:1004C0000B433B70FFF7E2FFF8BD2100280001F06D
:1004D000CFF90000034B1B6802201840431E9841CF
:1004E000C0B2704700C0064000231F2B08D8054A41
:1004F0009A189200BFF35F8F002111600133F4E777
:100500007047C04640000034054A1078431CDBB2F7
:100510001370172B02D9130010221A707047C046AF
:10052000D011002070B504000D00062001F0BAFAC9
:10053000C000290002F094FEC60908D00E4B9E426E
:1005400017D87F23184001303500460800E0012508
:100550006562A6622C34802080010443002323605E
:10056000062001F09FFA8000A901891902F078FEA7
:1005700070BD0026014DEBE7FEFF0000FFFF00000D
:10058000002909D00A22064B9C4660444342584148
:100590004000044BC252704780225200F3E7C0462D
:1005A0000080FCBF0436002070B505000C0006205A
:1005B00001F078FA002829D0164B9D4227D08022DE
:1005C000D203154B1A60154B1A60154B9B6811002E
:1005D0009943FAD100212800FFF7D2FF210028001B
:1005E000FFF7A0FF2C002C34E96A60224A406E21FC
:1005F000114080225201224311600A4B2B63802359
:100600009B01234310221A600323AB6470BD802238
:100610001204D6E70080034000E0004000F00040F4
:1006200000C000400103000070B505000C00080088
:1006300000F016FD200000F01DFE0849200000F02B
:100640005DFDFFF761FF064B9C46604480006860DB
:100650002C75A400034BE55070BDC0466D09001019
:1006600040000034D43500200A4B1A68EFF31081A3
:1006700072B61368002BFCD0BFF35F8F054B1B686D
:10068000BFF35F8F00221A6081F3108840BF002003
:1006900000217047E835002010B5002922D00368FA
:1006A0001B7B99421ED8174B9C4661440901836805
:1006B0009C4661440C684968002A19D003681B7B7A
:1006C0009A4215D883680F488446624412019A18EA
:1006D00010685368020001208B4201D80ED0002020
:1006E000C0B210BD084B094A3B21094801F0A2F8ED
:1006F000054B064A3B21064801F09CF8A242EFD880
:10070000EDE7C046FFFFFF0FF8670410B46A04105E
:10071000B467041010B500291ED0037B99421BD882
:100720004B005B18033B0468A4466344002919D0BE
:10073000002A1DD0914221D0002A25D0047BA2425C
:1007400022D8046850008018033820188170197866
:1007500000291FD11A7010BD104B114A6921114890
:1007600001F068F8104B114A70310E4801F062F840
:100770000F4B0E4A71210B4801F05CF80D4B0B4AF0
:100780007221084801F056F8044B054A69210548D2
:1007900001F050F841701A70DDE7C0462C68041073
:1007A000746A041048680410A0680410806A041079
:1007B000AC680410B868041070B506000D00140091
:1007C000002914D0002A14D0806873689847002844
:1007D00006D0220029003000FFF79CFF280007E028
:1007E0002A0021003000FFF795FF200000E01000F4
:1007F00070BD0800FCE70000F0B583B00500009272
:1008000001930AAB1C780BAB1F78002C26D0036831
:100810005A7B944207D10123002B19D1002C3BD1E4
:10082000200003B0F0BD002C0CD01A7B944209D8F4
:100830001A6863001B19033BD3189B78002BEBD07D
:100840000123E9E73E4B3F4A69213F4800F0F2FFB0
:100850003E4B3F4A65213F4800F0ECFF03689C7B1C
:10086000002CDBD012D01A7B94420FD862001219F0
:10087000033A19688C46624451789973002900D173
:10088000D9730023937053701370C7E72C4B2D4A14
:1008900069212D4800F0CEFF002C3AD02B681B7B3D
:1008A0009C4236D82C4BE3181B01AA68944663443B
:1008B000009A1A60019A5A60089A9A60099ADA6056
:1008C0002E68002C2BD030D0337B9C422DD8630077
:1008D0001B19033B32689446634400229A705A7095
:1008E0001A70717B22003000FFF766FF707384423C
:1008F00000D095E7287D009A019B00F047FC061E7A
:1009000001D0002F17D00C9B002B00D188E71E7060
:1009100086E7124B124A3B210E4800F08BFF114B29
:10092000114AA621084800F085FF054B054A6921B8
:10093000054800F07FFF2868210000F071FEE2E723
:100940002C680410746A041048680410D0680410FD
:10095000EC6A0410B4670410FFFFFF0FF86704107F
:10096000B46A0410B0670410946A0410F0B5DE464F
:1009700057464E464546E0B58BB009900023089394
:100980008200B34BD658370052E0B24BB24A3D21F9
:10099000B24800F04FFFB24BB24A3B21B24800F0E0
:1009A00049FF002901D1002869D10021404600F00B
:1009B0002DFEA04219D12A686B6806920793AB6896
:1009C0009846EB689A464346002B14D0002C18D06A
:1009D0003B681B7B9C4214D8631EFA68D35C089367
:1009E0001B0218433861002015E0A04BA04A8C215F
:1009F0009D4800F01FFF9F4B9D4A90219A4800F0B0
:100A000019FF974B9C4A4021974800F013FF0023A1
:100A10009A46984600207B68BFF35F8F00221A60D9
:100A200086F310884346002B32D1002800D107E11D
:100A300000F022FB02000B1EA7DB00200021069025
:100A400007917868EFF3108672B601680029FCD030
:100A5000BFF35F8F396888464C7B002CD7D09AD083
:100A6000097B8C4297D8854965182D01B9688C4659
:100A7000654428686968801A9941002991DD2A68CF
:100A80006B68099800F082FB00239A469846C2E7FB
:100A9000089B1B022343994651461800C047050096
:100AA0000E007A68EFF3108B72B6136859424B410F
:100AB000D9B2002BF9D1BFF35F8F002E26DB002EB9
:100AC00052DD3B69002B53D04B4572D100F0D4FA74
:100AD00002000B1E73DB010018005219734198428B
:100AE00002D804D1914202D901225242D317002BDD
:100AF0006BDB002104910131039102945146019175
:100B0000414600913800FFF777FE49E03B69002B32
:100B1000D5D04B451CD1069A079B10001900521BDB
:100B2000B341994202D804D1904202D901225242E3
:100B3000D317002B12DB00210491013103910294A1
:100B400051460191414600913800FFF755FE27E0DC
:100B50004B4B474A9F21444800F06CFE3D4B3E4AB8
:100B60003D213E4800F066FE002E01D1002DA8D1A7
:100B70003A68002C45D0537B9C422CD1012100299E
:100B80003FD1D37B002B42D1D473002C52D03B6891
:100B90001B7B9C424ED8FA68013C135D0133135510
:100BA00000233B617A68BFF35F8F13608BF310887B
:100BB0003EE7334B2E4AA2212B4800F03BFE254B4B
:100BC000254A3D21254800F035FE224B224A3D2191
:100BD000224800F02FFE002C0DD0137B9C420AD837
:100BE00063001B19033B1068844663449B78002B09
:100BF000C5D00121C3E7234B234A6921234800F0D4
:100C000019FE234B234AF721204800F013FE002B46
:100C10000AD0117B8B4207D85900CB18033B1168CF
:100C20008C4663445C70AFE7164B174A692117483E
:100C300000F000FE0A4B104A40210B4800F0FAFD7C
:100C40000BB03CBC90469946A246AB46F0BDC046B0
:100C5000D4350020F86804105C6A0410146904108C
:100C6000F8670410B46A0410B467041064690410CF
:100C7000046B04107C690410C06A0410FFFFFF0FAE
:100C8000886904102C680410746A04104868041001
:100C9000C4690410A46A041010B50A4B5B68002BE9
:100CA00004D00A21084800F005FB10BD054C2300C4
:100CB000064A1021206800F0C9FB03212000FFF73D
:100CC000B3FCEEE7D4110020E835002099060010AF
:100CD00010B5064B5B68002B01D0044810BD044BD7
:100CE000044A5C21044800F0A5FDC046D411002050
:100CF000E8690410D46A0410B4670410F0B5DE4645
:100D000057464E464546E0B58BB0804616001F005C
:100D1000149B9A46159B994616AB1B789B461F233E
:100D200002AA9446634400221A7032E0002809D0D7
:100D300042461268127B904204D8421E4146C9685E
:100D40008A5C48E0434B444A4021444800F072FD2D
:100D50000798002B75D05B46002B72D04946D047D0
:100D600004000D0003000B4300D171E0002946DBB5
:100D700000F082F906000F1E55DB36196F41B942AB
:100D800002D804D1B04202D901267642F717002FCB
:100D90004FDB43465A68EFF3108472B6136859422A
:100DA0004B41D9B20791002BF8D1BFF35F8F1F33AE
:100DB00002AA9446634404930023039302934B4690
:100DC00001935346009332003B004046FFF714FD69
:100DD000031EABD1020041464968BFF35F8F002577
:100DE0000D6084F31088002B29D01F2302A98C46A4
:100DF00063441B78002BABD112021043A9E73200E9
:100E00003B00361BAF41BB4202D804D1B24202D9EB
:100E100001267642F717002FBBDA114B114A3D210C
:100E2000114800F007FD0E4B0E4A3D210E4800F020
:100E300001FD0B4B0B4A3D210B4800F0FBFC012050
:100E400040420BB03CBC90469946A246AB46F0BD32
:100E50000798F6E7F8670410C06A0410B467041036
:100E6000F86804105C6A041014690410F0B587B0C7
:100E700006000F00FFF7F7F900281FD1062464428F
:100E8000E517A4197D41BD4202D803D1B44201D96E
:100E900000240025002D14DB0494059500F0ECF8E7
:100EA00002000B1E13DBA41A9D41002D17DC14D089
:100EB0003000390000F0ECF807B0F0BD234800F036
:100EC000D7FC234B234A3D21234800F0B3FC204BA1
:100ED000204A3D21204800F0ADFC002CE8D0FFF76F
:100EE000F7FE0023029301931C4B0093049A059B89
:100EF000FFF704FF002818DADAE7002300E00023F8
:100F0000002BD5D1164B1A68EFF3108172B6136817
:100F1000002BFCD0BFF35F8F114B1B68BFF35F8FBB
:100F200000221A6081F3108820BF0499059A0D4BA6
:100F30005B6A9A42E3D80B48806A884203D29A429D
:100F4000DBD00123DCE70123DAE7C0460C6A04109A
:100F5000F86804105C6A0410146904106906001033
:100F6000E835002000400540F8B504000D0000F011
:100F700083F802000B1E10DB200029008018594165
:100F80008B4202D804D1824202D901204042C117CB
:100F9000002908DBFFF76AFFF8BD064B064A3D2132
:100FA000064800F047FC034B034A3D21034800F08C
:100FB00041FCC046F86804105C6A0410146904100F
:100FC00010B5FA2292000023002103F08BF8FFF7FE
:100FD000CBFF10BD70B5EFF305833F2018401038EC
:100FE000EFF3108472B6194B1B68002BFBD0BFF3D4
:100FF0005F8F012319008140154A5163154A127809
:101000001500C5402B4214D0114B5D6A8300124E6F
:101010009B599D4206D38300104D5B598A430D496D
:101020000A7007E00A4A031D9B0099589950002353
:1010300000E00023BFF35F8F044A0021116084F3B6
:101040001088002B00D0984770BDC046280100D002
:101050000040054003360020EC35002048350020D4
:1010600010B50100024A0348FFF71AFA10BDC04646
:10107000286B041001360020044B5B6A034A906A17
:101080001900536A9942F9D17047C04600400540A3
:10109000074B5B6A8B4204D2054B5B6AFAE7044B51
:1010A0005B6A8B4203D1024B9B6A8342F7D3704742
:1010B0000040054070B504000D00FFF7DDFF0200A1
:1010C0000B0020002900801859418B4202D804D11E
:1010D000824202D901204042C117002902DBFFF7FA
:1010E000D7FF70BD024B034A3D21034800F0A2FB2D
:1010F000F8680410BC6B04101469041070B5040087
:101100000D00EFF3108672B61B4B1B68002BFBD053
:10111000BFF35F8F002D1CD0200000F03BFD174B6C
:1011200083420BD01900200000F03CFD012120007B
:1011300000F028FD0123A340114A1360A400114BC5
:10114000E550BFF35F8F0C4B00221A6086F31088C6
:1011500070BDA2000B4B0021D1500122A2400A49D0
:101160000B7893430B700549200000F045FD0021EA
:10117000200000F007FDE4E7280100D0D50F0010A3
:10118000386005404835002003360020F0B5DE46C3
:1011900000B584B00400150001921E000293FFF711
:1011A0006BFF03958E4202D84ED185424CD9EFF3A6
:1011B000108B72B6274B1B68002BFBD0BFF35F8FE1
:1011C000254A17780125A540EBB23B431370234B0A
:1011D0005D63221D92000199D150A200204902981E
:1011E00050501B6A2B4212D11C4B1B6C2B4208D057
:1011F0000020BFF35F8F174B00221A608BF310881B
:1012000023E0184B184AC121184800F013FBFFF7E0
:1012100033FF8E4214D802D1039B834210D80E4B69
:101220001B78BB420ED00D4B1D625D631F20044036
:101230000123A3400E4A1360074B1F701E38D8E7E6
:101240000020D6E70120D4E7012004B004BC934677
:10125000F0BDC046280100D0033600200040054004
:10126000EC3500204C6B0410D46B0410706B041030
:1012700080E200E010B5EFF3108472B60A4B1B68F1
:10128000002BFBD0BFF35F8F01238340074A13621B
:1012900007490A789A430A70BFF35F8F024B002216
:1012A0001A6084F3108810BD280100D0004005406A
:1012B00003360020024B9C46614489000160704760
:1012C0004000003470B504000D00FFF71DF9010067
:1012D0002000FFF7EFFFFF2323716571BFF35F8FDE
:1012E00070BD10B50021FFF7EDFF10BD10B5FF2157
:1012F000FFF7E8FF10BD000010B500291ED0037BEA
:1013000099421BD84B005B18033B0468A446634416
:10131000002919D0002A1DD0914221D0002A25D0C1
:10132000047BA24222D80468500080180338201899
:101330008170197800291FD11A7010BD104B114A05
:101340006921114800F076FA104B114A70310E48AD
:1013500000F070FA0F4B0E4A71210B4800F06AFA48
:101360000D4B0B4A7221084800F064FA044B054A01
:101370006921054800F05EFA41701A70DDE7C04649
:101380002C680410946D041048680410A0680410C0
:10139000A06D0410AC680410B868041070B50600A5
:1013A0000D001400002914D0002A14D0806873683E
:1013B0009847002806D0220029003000FFF79CFF44
:1013C000280007E02A0021003000FFF795FF2000E9
:1013D00000E0100070BD0800FCE7000010B500231D
:1013E000437301338373037BC3730123027B9A42EC
:1013F00014D9002B0CD0027B934209D85A00D21882
:10140000033A01688C4662440133DBB25370EDE766
:101410000B4B0C4A69210C4800F00CFA002A09D049
:10142000924207D8016853009A18033A8A18002399
:10143000537010BD024B034A6921034800F0FAF9CA
:101440002C680410946D04104868041010B50173E2
:1014500042608360FFF7C2FF10BD000070B504005A
:10146000081E00D170BD002934D0237B994231D8A9
:101470004B005B18033B2268944663445A78002A69
:10148000F0D02DD0237B9A422AD853009B18033BDF
:1014900021688C4663445D7800215970002825D06E
:1014A000237B984222D843001B18033B21688C46BB
:1014B00063440021597001002000FFF76FFF060010
:1014C00029002000FFF7CAFF020031002000FFF7CB
:1014D00065FFC7E7084B094A6921094800F0AAF9E6
:1014E000054B064A6921064800F0A4F9024B034A5D
:1014F0006921034800F09EF92C680410946D0410D3
:101500004868041070B505000C001600002928D0AA
:101510002DD0037B99422AD84B005B18033B02680D
:10152000944663445A78002A27D19A78002A2AD10F
:101530001978FFF793FF0300002E03D0EA7B002AFF
:1015400027D1EC73002B37D1002C49D02B7B9C4248
:1015500046D82B6861000C19033C1C1900236370EA
:1015600070BD224B224A3821224800F063F9224BF9
:10157000224A6921224800F05DF9224B1C4A3A2197
:101580001C4800F057F9204B194A3B21194800F03C
:1015900051F9002A0AD0297B8A4207D851008A18BB
:1015A000033A29688C4662445470CAE7124B134AC6
:1015B0006921134800F03EF9002B0BD02A7B93429F
:1015C00008D843001B18033B2A6894466344002252
:1015D0009A70B9E7084B094A6921094800F02AF9CD
:1015E000054B064A6921064800F024F9D46C041022
:1015F000B46D0410DC6C04102C680410946D04109D
:1016000048680410206D0410486D041070B5040083
:101610000A00457B2900FFF775FF6073280070BD45
:1016200070B50400002966D0437B8B420ED00029A0
:1016300011D0037B99420ED84B005B18033B026824
:10164000D0188378002B0CD1002055E00121FFF742
:10165000DDFF012050E0294B294A6921294800F08B
:10166000E9F8002B1FD0227B93421CD825685A0032
:10167000D318033BEA18EB5C8B421AD0002B1BD02B
:10168000227B934218D85A00D318033B2268D21801
:1016900053788B4216D0002BF0D11B4B1B4A67218D
:1016A0001B4800F0C7F8154B154A6921154800F092
:1016B000C1F84378137007E0104B114A69211148B3
:1016C00000F0B8F843785370002383704370012210
:1016D0002000FFF717FF0200617B814205D0200048
:1016E000FFF75CFE6073012006E00A4B074A6D219C
:1016F000074800F09FF8002070BDC0462C68041019
:10170000946D0410486804106C6D0410C86D0410CA
:10171000DC6C0410746D041070B5264B264A1A60F8
:10172000264B274A1A60274B9A68254B9343FAD1D8
:10173000254C264B9C4202D208CC9847F9E700F092
:1017400031F91E4B224A1A601E4B9B68DB43DB01BA
:10175000FAD1204B40229A675A671A67DA661E4C04
:1017600003E02000FFF7BDFD08341C4B9C4206D26D
:101770006379002BF5D02000FFF7B8FDF4E7184C93
:10178000A168184DC022280002F0DEFDA560FEF71A
:101790006AFD002800D000BEFEF7A6FE00F08EFB1A
:1017A000FFF77AFA104C01E008CC98470F4B9C42A7
:1017B000FAD370BD00E00040BFCDFBFE00F000405A
:1017C000FE7F3C0000C00040401D0020501D002056
:1017D000FFFFFF0100F00140301D0020401D0020F0
:1017E00000ED00E000000020501D0020741D0020CE
:1017F00000BEFDE703000A4A1268002A08D0084A22
:101800001068C318074A9A4206D3054A1360704706
:10181000034A05491160F2E701204042F7E7C0465C
:10182000C8350020000004203438002010B5FFF730
:10183000DFFF000010B582B00C001900002A0CD0A8
:10184000084B002A0BD001920093230002000648A7
:1018500002F012FF0120FFF7CBFF044BF1E7034A30
:10186000F1E7C046E06D0410F06D041000A4041010
:101870000FB400B583B0084802F0CEFE049B002BE5
:1018800007D005A90191180002F0D4FE034802F028
:10189000C3FE0120FFF7ACFF206E04102CB0041033
:1018A000F8B5DE4657464E464546E0B505000F0002
:1018B00092461E000A9B9E424ED3330E9946360234
:1018C0000A9A00233000494601F00CFD80466C0066
:1018D0006419A4002E4B9C4664446368834200D282
:1018E00060602B1FDBB29B46012B3BD9C0239B01C1
:1018F0002343802212011A60AB00264A995800291E
:1019000005D0506901F0ACFC01300138FDD15346DF
:101910005A0123685A40E0231A4080235B01234385
:101920001A605A46012A28D980239B01234380222A
:1019300012011A6043466360424600233000494664
:1019400001F0D0FCAD00134B585101203CBC904637
:101950009946A246AB46F8BD0F4B104A2D211048C0
:10196000FFF768FF012FC1D1C0239B01234303224E
:101970001A60A368DB07FCD5C9E721687940032218
:101980000A401A60A3680122BA401A42FAD0CBE793
:101990000080004058350020306E0410946E041012
:1019A000446E041030B583B00C2000F01FFBFEF72E
:1019B00091FD00280DD00023092B05D899002D4A50
:1019C0002D4888500133F7E72A4B2C4A5A6203B05E
:1019D00030BD2B4B00229A6700F010FB294B0122EF
:1019E0001A60274B5B6C012BFBD1274B03221A603B
:1019F000234B9B6B012BFBD1022400940533234A1C
:101A00000121234800F066FA00940523214A0121B0
:101A1000214800F05FFA214B0093002202210420AC
:101A2000FFF73EFF1E4D00952B00002201210520EF
:101A3000FFF736FF104C00942300002200210720FE
:101A4000FFF72EFF00942300002200210820FFF75B
:101A500027FF0A4B00932300002200210920FFF7F3
:101A60001FFF00952B00002200210620FFF718FF22
:101A7000ADE7C04658350020006CDC021BB7000003
:101A8000008000403CB0004030B00040002F68595A
:101A90000080024000389C1C00C00240001BB700C0
:101AA000405973078000014BC058704758350020DB
:101AB000074B9B68103080001950BFF35F8FBFF356
:101AC0005F8F044B0021196082F310887047C04675
:101AD00000ED00E0240100D010B5091A04394808CF
:101AE000090B05D14005400D044B184380B210BDD1
:101AF000034B044A8C210448FFF79CFE00E0FFFFE3
:101B0000A46E04108C700410B46E041010B5091A81
:101B100004394C08090B08D14905490D064A1143FF
:101B20000180064B2343438010BD054B054A942199
:101B30000548FFF77FFEC04600F0FFFF00F8FFFFFB
:101B4000A46E041098700410B46E04100123834036
:101B5000034A10681840431E9841C0B27047C046FF
:101B600000E100E0002904D0034B1860034B18602B
:101B70007047034B1860FBE780E200E000E100E003
:101B800080E100E010B5012383401800FFF7EAFF71
:101B900010BD0000024B9B6810308000C058704799
:101BA00000ED00E070B504000D00EFF3108672B692
:101BB0000C4B1B68002BFBD0BFF35F8F2000FFF79F
:101BC000E9FF094B984201D0A84205D13200290013
:101BD0002000FFF76DFF70BD044B054A70210548DA
:101BE000FFF728FE240100D0CD010010FC6E041088
:101BF00070700410B46E0410F0B5CE46474680B540
:101C000083B006000D00EFF3108872B6574B1B68C7
:101C1000002BFBD0BFF35F8F554B9A683400103414
:101C2000A300D758534B9F4207D0AF4200D19BE04F
:101C30000197514BFB1A2F2B09D94246390030002E
:101C4000FFF736FF03B00CBC90469946F0BD30005C
:101C5000FFF77CFF814600213000FFF793FFBFF3C1
:101C60005F8FFEF700FB002801D0844219D10123C9
:101C7000019C9C43230040495B1A5B4148495943FE
:101C8000090D49B20022A368AB4212D00622A25627
:101C9000002A0DDB53009B189B002200364CE418F1
:101CA000F1E72021354B364AFF313648FFF7C2FDB8
:101CB0002200AB4251D106256557002D39DB6B0060
:101CC0005B199A002C4B9B189A68A260DA79E27132
:101CD00006229A56A2719B795BB2002B10DABD20C6
:101CE0000002A0806B005B199B00234AD318264A90
:101CF00011789971157049463000FFF743FF9CE752
:101D0000201D6B005B199B001B4A9B181A1D9B88AA
:101D1000D90A1C2907D15905491502314900511822
:101D2000FFF7DAFEDDE7194B194A9A211548FFF74C
:101D300081FD00280CD1002A08D0FF239371154B98
:101D40009380114B1A78A2711970D4E7094FF8E704
:101D5000201D1149FFF7DAFECDE7AA210F4B084AF3
:101D600049000848FFF766FD024F66E7240100D0EE
:101D700000ED00E0CD010010FC11002010700410F7
:101D8000C0700410B46E041002360020F86F041006
:101D9000B070041000BDFFFF361200203470041034
:101DA000AAAA000010B5032304009C43064A9446E7
:101DB000644422681840C000FC3383409A431300F7
:101DC00081400B43236010BD00E400E0F8B504003F
:101DD000012606432D4BF31A2F2B28D8FEF743FA82
:101DE00000282BD0EFF3108772B6294B1B68002B0D
:101DF000FBD0BFF35F8F2300244D5B1B5B412E4D57
:101E00005D432D0D6DB2234B9B6880001B58B34280
:101E10001BD00022032A32D853009B189B001B4979
:101E2000CB189B795BB2AB421FD00132F2E7722133
:101E3000194B1A4AFF311A48FFF7FCFCBA21194B1B
:101E4000164A49001648FFF7F5FC124B9B68164AE4
:101E50001A50164B1A78A2711D70BFF35F8F0C4B8E
:101E600000221A6087F31088F8BD08005300991803
:101E700089004118FF268E710D4A8A80E9E7862184
:101E80000C4B064AFF310648FFF7D4FCFC1100203A
:101E9000240100D000ED00E03C700410D470041068
:101EA000B46E041064700410CD01001002360020DE
:101EB00000BDFFFF6C6D0410AAAA000010B500243D
:101EC0001F2C05D880212000FFF76CFF0134F7E7B5
:101ED00010BD0000F0B5CE4600B504000E009146DE
:101EE0001F000C2001F0BCF9050043011B1A9901E9
:101EF000C91AC90009188901484601F0B1F9020060
:101F0000103A98235B009A4233D87B1E062B36D8B2
:101F1000069B013B062B32D8069B9F4235D34B468E
:101F20001A09AA4237D33F04069B1D032F43236897
:101F3000002B36DB234B9C4241D080256D01224B88
:101F40001D60224B1D60224A92682B009343FAD1F8
:101F50002660A060221DC0239B01134321221A602A
:101F60002268002AFCDAE76008221A6004BC914665
:101F7000F0BD184B184A16211848FFF75BFC184BA8
:101F8000154A19211548FFF755FC164B124A1F2117
:101F90001248FFF74FFC144B0F4A22210F48FFF75E
:101FA00049FC22683F231340B342C3D1A3681B05F9
:101FB0001B0D8342BED1E368002FBBD1D6E780253D
:101FC000AD01BCE700C0024000E0004000F000406E
:101FD00000C00040F0700410D47104100C710410A3
:101FE00054710410A0710410B871041080239B0078
:101FF0000343014AD362704700800540064BAA2282
:1020000012011A602F22DA60044B054A1A60024B53
:102010005B68002BFBDA7047004002400060024022
:1020200000B0FA009A4200D288547047704710B549
:10203000002802D00B684968984710BD01000020B5
:102040000A681378303BDBB2092B08D883001B18D1
:102050005B00501C08601078C0183038F0E77047FB
:10206000F0B5DE4657464E464546E0B583B093464A
:102070001F000C9B9A460D9C0E9B99460F9B9B073D
:1020800003D0B8460F00060022E00192A34688461E
:102090004E46B9460700B44207D2551C4B4641464E
:1020A0002020B84701342A00F5E73D004F465C4642
:1020B000019B9B46B1464646B84637002E0007E0D6
:1020C000013C551C5346185D43463900B0472A0071
:1020D000002CF5D135003E0047460F9B9B0707D4E7
:1020E000100003B03CBC90469946A246AB46F0BDFA
:1020F000B0464E46B9462F005D46531BB342EFD261
:10210000541C4B4641462020B8472200F5E7F0B565
:10211000CE46474680B585B0944698460C9D0D9CAA
:102120000EAB1B789946109A119B129EB7071BD4D1
:10213000002B08D0F70706D54F46002F02D10C37E9
:10214000374200D0013B944208D21F2C06D83027DA
:102150002F550134F7E730272F550134F70703D502
:102160009C4201D21F2CF6D9F70615D5770505D468
:10217000002C03D0944224D09C4222D00F9A102AE3
:102180002BD00F9A102A30D00F9A022A35D01F2C4C
:1021900002D830222A5501341F2C05D84A46002A7D
:1021A00031D02D222A5501340396029301940095D3
:1021B00043466246FFF754FF05B00CBC9046994673
:1021C000F0BD621E012C06D00F9F102F01D014000D
:1021D000D4E7023CD2E71400D0E7B206D1D41F2CDA
:1021E000CFD878222A550134D1E7B206CCD51F2C9E
:1021F000CAD858222A550134C9E71F2CC7D86032E3
:102200002A550134C3E7720703D52B222A5501341E
:10221000CAE73207C8D520222A550134C4E7F0B5F1
:10222000DE4657464E464546E0B593B081468A465F
:10223000089209931CAB10CB1B789B461E9D219BDB
:102240009846002C03D1102342469A43904680239F
:10225000DB0046461E4042461A4212D0002C22D0D5
:1022600000260EE03033D9B2771C0AAB995529000D
:10227000200000F0F5FFAC4216D31F2F14D83E000B
:1022800004002900200000F0EBFFCBB2092BE9D9B4
:102290004246920605D54121C918C9B20A39C9B2C8
:1022A000E2E76121F8E7270043460693209B059368
:1022B0001F9B049303955B46029301970AAB00931F
:1022C000099B089A51464846FFF721FF13B03CBCD2
:1022D00090469946A246AB46F0BDF0B5DE4657465D
:1022E0004E464546E0B595B0089009910A920B9389
:1022F0001E9E1F9C20AB1B789B46229B9946239DCC
:10230000269B9A463300234303D1103352469A4307
:1023100092468023DB0057461F4052461A4219D08E
:10232000330023432DD0002714E03033DAB27B1C76
:1023300098460CABDA554A462B003000210000F0DD
:10234000D1FFA5421FD819D043461F2B1BD84746A3
:1023500006000C004A462B003000210000F0C2FFAE
:10236000D3B2092BE1D95246920605D54122D218A3
:10237000D2B20A3AD2B2DAE76122F8E7B145E3D93C
:1023800001E00023984653460693259B0593249B22
:1023900004934B4603935B460293434601930CAB75
:1023A00000930B9B0A9A09990898FFF7B0FE15B0A5
:1023B0003CBC90469946A246AB46F0BDF0B5DE4621
:1023C00057464E464546E0B591B083468A460C9244
:1023D00098461A9C08941B9D099522002B0020000A
:1023E000290001F014FA002800D0E5E00122524251
:1023F000D34B2000290001F005FA002800D0DBE0D3
:1024000001225242CF4B2000290001F0E5F90028BB
:1024100000D0D1E000220023089D2800099E310051
:1024200001F0DAF9002800D0DDE00898099906905B
:1024300007918023DB001E9A1A400D921E9A1A42C1
:1024400001D106231C930698079904000D000A0089
:102450000600024300D1CDE0080D4005400DBA4C06
:10246000A44660440A03120BB84B13431F0001F04B
:10247000E1F9B74AB74B01F064F9B74AB74B01F03D
:1024800039F904000D000022B54B3000390001F08D
:1024900028F9B44AB44B01F054F902000B002000B3
:1024A000290001F027F901F0DDF9814601F0C2F9B8
:1024B00004000D00AD4AAE4B01F043F90022AD4BD4
:1024C00001F018F901F0CEF90600AB4AAB4B200041
:1024D000290001F036F904000D00300001F0AAF9DE
:1024E000A74AA84B01F02DF902000B00200029009B
:1024F00001F0F7F804000D0002000B0001F021F9D3
:102500000A900B91A04BF31800261F0522002B0008
:102510002000290001F0EEF80E900F9122002B0010
:1025200000208021C90501F0DCF804000D00002224
:10253000964B0A980B9901F0E6F80022944B01F0B3
:10254000D9F802000B000A980B9901F0DCF8002280
:10255000904B01F0CFF802000B000A980B9901F0A4
:10256000D2F802000B002000290001F0C3F802009D
:102570000B000E980F9901F0C6F80022734B01F082
:10258000B9F832003B0001F0DCF806000F0004004F
:102590000D00069A079B01F035F900282CD0012385
:1025A0005B429C46E1440022794B3000390001F047
:1025B000AAF804000D001FE01E9B04931D9B0393CB
:1025C0001C9B0293089A099B0092019343460C9A24
:1025D0005146584600F0F8F811B03CBC9046994678
:1025E000A246AB46F0BD069580231B069C4666447A
:1025F00007961EE7002399464B466333C62B1FD828
:1026000004261E9B1B0527D52B00234310D0624AAE
:10261000624B0698079901F0EDF8002800D183E09D
:1026200000225F4B0698079901F0D6F800287BD06E
:102630001C9B4B4506DD4A46981A431E1C9303E03B
:102640000526DEE700231C938023DB001E9A1A4335
:102650001E920026002399461D9B9E426ED29F1B10
:1026600002231E9A1A400A921E9A134202D0002E8A
:1026700000D000274B46002B07D022002B000698E5
:10268000079901F040F8069007910022002308986E
:10269000099901F0A1F8002800D085E0414B1E9A6D
:1026A0001340049303971C9B0293069B079C009383
:1026B000019443460C9A5146584600F085F8002E86
:1026C00000D189E71E9B9B067AD54525441C4346CD
:1026D000020051462800D8474B46DA179B18534052
:1026E00005220592013E0496002203920A320292CC
:1026F0004A46D00F01900093434622005146584667
:10270000FFF78DFD0A9B002B00D165E702005F46B5
:102710000C9E1D9D931BAB4254D2541C4346514604
:102720002020B8472200F5E71C9B002B94D00D9B7E
:10273000002B91D01C9B013B1C938DE700278FE75A
:10274000FFFFEF7FFFFFEFFF01FCFFFF0000F03F07
:10275000FB799F501344D33FB3C8608B288AC63F90
:102760000000F83F61436F63A787D23F71A37909E7
:102770004F930A400000E03F1655B5BBB16B0240D5
:10278000EF39FAFE422EE63FFF03000000002C4026
:1027900000002440000018402D431CEBE2361A3F95
:1027A00080842E41FFF7FFFF069C079D2200290031
:1027B00080200006844661440B00069207936DE773
:1027C000652583E7100007E7F0B5DE4657464E461D
:1027D0004546E0B595B00690079193469946209FEF
:1027E0001E9A1F9B1000190001F011F8002831D12A
:1027F00001225242BF4B1E981F9900F0EDFF0028A6
:1028000037D101225242BC4B1E981F9900F0FAFFAB
:1028100000283DD10022B94B1E981F9900F0F2FF0D
:10282000002850D10022B64B1E981F9900F0D4FF0B
:10283000002848D1002200231E981F9900F0CCFFE9
:10284000002850D100239846229B5B0500D4B6E0B7
:10285000002458E0229B0393219B029303230193BE
:10286000A84B00934B465A4607990698FFF7F8FB8A
:102870000EE1229B0393219B029304230193A24B1D
:1028800000934B465A4607990698FFF7E9FBFFE08D
:102890000423229A1A4022990B4210D09B4B002A03
:1028A0000FD0042222990391219902910192009361
:1028B0004B465A4607990698FFF7D2FBE8E0944B3F
:1028C000EDE70322EEE7229B0493219B03930297FB
:1028D0001E9B1F9C009301944B465A4607990698ED
:1028E000FFF76CFDD4E01E9A1F9B0020002100F032
:1028F000F8FE1E901F9101239846A5E70CAB3022ED
:102900001A55013F01341F2C01D8092FF6D81E9803
:102910001F9900F0A7FF050000F08CFF02000B00DC
:102920001E981F9900F0DDFEFA007A4B9B181A687A
:102930005B680A920B9300F004FF0890099100F085
:10294000B5FF060000F072FF02000B00089809991D
:1029500000F0C7FE0890099100226F4B00F052FF73
:1029600000282ED00136300000F060FF02000B007E
:102970000A980B9900F036FF002801D00135002697
:10298000002F2CD1280000F055FF02000B001E98EC
:102990001F9900F0A6FE06000F0000225E4B00F01B
:1029A0001BFF002842D100225B4B3000390000F0B1
:1029B00029FF00283AD1EB0738D5013536E0062744
:1029C00046E70022544B0898099900F005FF0028BB
:1029D000D6D1002E01D0F307D2D50136D0E7AA46D2
:1029E0001F2C11D8013F0A21300000F039FC651C72
:1029F00030310CAB19550A21300000F031FC092EA2
:102A000026D906002C00EBE7554604E00CAA30213D
:102A100011551F0001341F2C02D87B1E002FF5D149
:102A20001F2C03D80CAB2E221A5501341F2C14D89E
:102A30000A21280000F0ECFB661C30310CAB195564
:102A40000A21280000F0E4FB051E05D03400EDE764
:102A50002B0055461C00DEE734000323229A134066
:102A6000012B1CD01F2C06D84346002B32D00CABB8
:102A70002D221A550134229B0393219B029301942A
:102A80000CAB00934B465A4607990698FFF7E8FAB5
:102A900015B03CBC90469946A246AB46F0BD219B82
:102AA000002B13D04346002B02D10C3313420FD01E
:102AB000219B013B2193190003E00CAB30221A55F6
:102AC00001348C42CED21F2CF7D9CBE72199F8E7FD
:102AD0002199F6E7229B5B0704D50CAB2B221A55F4
:102AE0000134C8E7229B1B07C5D50CAB20221A5521
:102AF0000134C0E7FFFFEFFFFFFFEF7F65CDCD4162
:102B000065CDCDC1EC710410F0710410E4710410B6
:102B1000E0710410D87304100000E03FF0B5DE4609
:102B200057464E464546E0B593B082468B469046A2
:102B30001193002900D1ECE200275546119B18782B
:102B4000002800D1E8E2252809D07C1C43463A0041
:102B50005946A847119B013311932700EEE7013333
:102B6000119300241DE00B00303BDBB2092B37D959
:102B70002A293AD000230A93119B1A782E2A44D08E
:102B800000239A46119A1378683BD9B2122900D9CA
:102B900080E08B00CB49CB589F4601231C43013278
:102BA0001192119A11780B00203BD8B21028DAD874
:102BB0008300C548C3589F4602231C43013211922B
:102BC000EFE704231C4301321192EAE708231C4378
:102BD00001321192E5E710231C4301321192E0E724
:102BE00011A8FFF72BFA0A90C6E71C9B1A1D1C922E
:102BF0001868002804DB0A90119B01331193BBE78E
:102C000002231C4343420A93F6E78022D200144376
:102C10005A1C11925A781300303BDBB2092B04D9AD
:102C20002A2A07D000239A46ACE711A8FFF706FA34
:102C30008246A7E71C9B1A1D1C921868002804DB1B
:102C40008246119B013311939CE70020F8E7802313
:102C50005B002343511C119152786C2A01D01C0057
:102C600018E0C0239B001C430131119112E0802326
:102C70002343511C11915278682A01D01C0009E0AD
:102C8000C0231C430131119104E080235B001C43ED
:102C900001321192119B18780300253BDAB2532AB6
:102CA00000D92CE29300894AD3589F4680239B0089
:102CB0001C4301321192EDE780235B001C4301327B
:102CC0001192E7E7782809D0582838D06F2838D0F3
:102CD000622838D010239C430A2600E0102658288A
:102CE00033D0692803D0642801D00C2294436305B3
:102CF00001D50122944369282AD0642828D0A3054D
:102D000000D59FE0E30500D5B8E0630600D4CAE033
:102D10001C9A111D1C911168FF220A4005940A9B00
:102D20000493534603930296002301930092434673
:102D30003A0059462800FFF772FA070027E01026EC
:102D4000CDE70826CBE70226C9E720221443C8E7CF
:102D5000A30520D4E30550D4630666D51C9A111D43
:102D60001C911168FF220A40D317D11859400594CD
:102D70000A9B0493534603930296D20F019200914B
:102D800043463A0059462800FFF749FA0700119BCD
:102D900001331193D2E61C9BDA1D07218A431100EF
:102DA00008311C91116853689C46DB170C930D93F6
:102DB0000C9A0D9B100048400E90624653400F93B2
:102DC0000E980F990C9A0D9B801A99410E900F91B5
:102DD00008940A9B07935346069304960023059391
:102DE0006346DA0F02920090019143463A00594639
:102DF0002800FFF772FA0700C9E71C9A111D1C9101
:102E00001268D317D118594005940A9B049353466E
:102E100003930296D20F0192009143463A0059461D
:102E20002800FFF7FCF90700B1E7230605D51C9A37
:102E3000111D1C910023D25E96E71C9A111D1C9156
:102E4000126891E71C9BDA1D07218A4311000831A3
:102E50001C9108940A9B07935346069304960023FB
:102E600005930293136854680093019443463A0013
:102E700059462800FFF731FA070088E71C9A111D10
:102E80001C9105940A9B04935346039302960023D6
:102E900001931368009343463A0059462800FFF710
:102EA000BEF9070073E7230606D51C9A111D1C9175
:102EB00012681204120C31E71C9A111D1C91126841
:102EC0002CE7C046F8710410447204108872041094
:102ED00046281AD01C9B0733072293431A00083256
:102EE0001C9204940A9A0392524602925C681B68F0
:102EF0000093019443463A0059462800FFF764FCCA
:102F00000700119B0133119318E620231C43E1E7CE
:102F1000672801D0472802D180231B011C43452884
:102F200001D0472801D120231C431C9B07330722D3
:102F300093431A0008321C9204940A9A0392524650
:102F400002925C681B680093019443463A0059461C
:102F50002800FFF733FA0700119B01331193EDE5C9
:102F600002231A002240924623421FD001241C9BB8
:102F70001A1D1C927A1C9146187843463A0059460D
:102F8000A8475346002B16D1119B013311934F468E
:102F9000D4E5561C434659462020B847230032004A
:102FA0005C1C9D42F5D83D001700E0E701233A0084
:102FB0002F000A9DF4E74A46A9460A9D06E0571CE1
:102FC000434659462020C84734003A00661CA542B3
:102FD000F5D84D469146D7E71C9B1A1D1C921B68DD
:102FE00099465346002B00D1013B4E4601E0013685
:102FF00013003278002A02D05A1E002BF7D14B461C
:10300000F21A10928023DB0026001E401C4203D0DF
:10301000524501D95346109302231A0022400B92C5
:10302000234205D03A0037004C46A946554620E0D9
:103030003A00109B5F46B3462E0006E0551C4346FF
:1030400039002020B04723002A005C1C0A999942CD
:10305000F4D835005E46BB46109437004C46A9466E
:10306000554606E01D000134561C43465946C847E4
:1030700032002078002804D0002FF4D06B1E002DE1
:10308000F0D117004D460B9B002B03D1119B013350
:10309000119353E50A9F109B06E0561C4346594680
:1030A0002020A847230032005C1C9F42F5D817005F
:1030B000ECE721231C431C9B1A1D1C921B680093E8
:1030C000059408230493534603931023029300238B
:1030D000019343463A0059462800FFF7A0F807003D
:1030E000119B0133119329E57C1C43463A00594654
:1030F0002520A847119B0133119327001EE57C1C56
:1031000043463A005946A847119B013311932700C3
:1031100014E50B4B9A460FE5AA4647450DD34346A7
:103120005A1E434659460020D047380013B03CBCD5
:1031300090469946A246AB46F0BD3A00F1E7C0463C
:103140002D2000100EB410B585B0010007AC08CCDE
:1031500003940122009452420348FFF7DFFC05B0BC
:1031600010BC08BC03B018472520001000B583B080
:10317000009313000A0001000248FFF7CFFC03B0E0
:1031800000BDC0462520001000B585B00290039117
:103190000121009313004A4202A90248FFF7BEFC36
:1031A00005B000BD2F20001001480421014B184735
:1031B00050120020D931001010B5010018231B88CF
:1031C00014221088984710BD10B5010018231B88E1
:1031D00016221088984710BDF0B5C64600B5070006
:1031E0000E0000250123984600E00135B5420AD2C1
:1031F000AC003C192068FFF7DFFF20600028F4D105
:1032000000239846F1E7404604BC9046F0BD00001C
:10321000124A936F9B0815D29066D166002905D09B
:10322000FFE7FFE7FFE7516F106F704704B580219C
:103230000906C2175140002800D0C84343F060FA85
:10324000002104BDF0B5146E556E576F166FFFF771
:10325000E3FF1466556657671667F0BD000000D09F
:10326000114A936F9B0813D210665166002905D04E
:10327000FFE7FFE7FFE7516F106F704704B50028C5
:1032800001D00020C04343F03BFA002104BDC046FA
:10329000F0B5146E556E576F166FFFF7E5FF1466A5
:1032A000556657671667F0BD000000D094464E4A39
:1032B000926F9208624601D230E0C046F0B54A4EA5
:1032C000B56F6D08FCD3346E756E776F366F00F096
:1032D00025F89446444A1466556657671667624651
:1032E000F0BDC0469446404A926F9208624601D2B1
:1032F00058E0C046F0B53C4EB56F6D08FCD3346E57
:10330000756E776F366F00F04DF89446364A146646
:103310005566576716676246F0BDC046002B24DB32
:1033200011D000293EDA00B5C943404200D1013135
:1033300000F038F8C943404200D10131DB4352422A
:1033400000D1013300BD002AEBD1002801D10029B2
:1033500005D00020C90FC90701D1C043410800B5FD
:1033600043F0A6F90022002300BD00B500290ADBC6
:10337000DB43524200D1013300F014F8C94340420C
:1033800000D1013100BDC943404200D10131DB43CE
:10339000524200D1013300F005F8DB43524200D124
:1033A000013300BD002923D1002B18D1002A0CD0F5
:1033B000BC460D4F38667A6600210023FFE7FFE721
:1033C000FFE77A6F386F67467047002801D00748DB
:1033D000010000B543F06CF90022002300BD02009B
:1033E0000B00002000217047000000D0FFFFFFFF0E
:1033F000002B00D0BDE0130C26D1002AE7D080B40A
:10340000104F39667A66FFE7FFE730B4040C7B6F34
:10341000396F1B0423433B66FFE7FFE7FFE7C04626
:1034200084B27B6F3D6F1B0423433B66FFE7FFE7DE
:10343000C04600232C042D0C7A6F386F00196941A7
:10344000B0BC7047000000D0F0B594460025140EC3
:1034500001D112020835140F01D112010435940F65
:1034600001D192000235D40F01D152000135D40BA5
:103470000134254F7C66254C3C660E0C93B2FFE769
:10348000FFE7FFE73C6F6643360C7703BE467343A6
:10349000DF0B5B04C01AB941130C7343DB18C91A64
:1034A000CE086643360CB64493B273431F0F1B011C
:1034B000C01AB941130C73431F0B1B05C01AB94145
:1034C000860D8F023E436643360C092D24DB520ADB
:1034D0007243801A7703460A6643360C16235B1B39
:1034E000DE40DF40BF1964466643821B70460435E8
:1034F00006330100D940A840C01900D30131A242CF
:1035000006D20023F0BD0000000000D0FFFFFFFF47
:10351000121B0130F3D3F1E709277F1BFE406446FD
:10352000A2B27243801A00D20139220C7243130CEA
:103530001204821A99410B007046043513370100BA
:10354000F940A840801900D30131002B02D1A242DA
:103550000AD2F0BD013000D30131121BFAD2013B77
:10356000F8D1A24200D2F0BD013000D30131121BCC
:10357000F7E7F0B51C0C00D080E00CB400251C0A65
:1035800004D11B02160E3343120208351C0B04D162
:103590001B01160F3343120104359C0B04D19B0011
:1035A000960F334392000235DC0B02D192185B4137
:1035B00001351C00971864410134464F7C66464C27
:1035C0003C660E0CFFE7FFE7FFE7C0463C6F664333
:1035D000360C7703BE4697B27743C01B00D2013941
:1035E000C01B00D201399FB27743C91BC91B170CFE
:1035F00077437E04FF0B801BB941CE086643360C2F
:103600000C2D33DBB644120B1F053A431B0B97B24C
:103610007743C01B00D201399FB27743C91B170CF7
:1036200077433E043F0C801BB941860D8F023E4319
:10363000664329277F1BFE400C3D7746AF40BF19EC
:1036400030BCA2B2ABB272437343801A9941220CD0
:103650007243130C1204801A994102000B000137C7
:10366000001BA941F9D2781E0021F0BD0C277F1B59
:10367000FE4077467F0BAF40FF19E0E700245D1C5A
:1036800007D0144F7D663966FFE7FFE7FFE7FFE7E6
:103690003C6F95B29EB265436643401BB141150C29
:1036A0001E0C6543664336042F0C3E432D04401B1D
:1036B000B141994204D202000B0020000021F0BD6C
:1036C00001D19042F7D3801A994101349942F2D343
:1036D000F6E70000000000D0FFFFFFFF4840414038
:1036E000484018B41B4B5B68FC46019308BD04DFDF
:1036F0003B3A001018B4174B1B68FC46019308BDF9
:1037000000DF453A00109446134A926F920809D29E
:10371000624618B40F4BDB68FC46019308BD0CDF12
:10372000FD3C00100C4AF0B5146E556E576F166FC5
:103730006246FFF7EEFF084A14665566576716673C
:10374000F0BD18B4034B9B68FC46019308BD08DF2D
:10375000A13B001008360020000000D0FFB550400B
:103760004240504059404B40594000E0FFB5154F92
:103770004C00640D03D0BC4204D10C0314D80020CB
:10378000090D09055C00640D03D0BC4204D11C0383
:103790000AD800221B0D1B0501264B4009D44B40C3
:1037A00003D58B4200D18242FFBD9942FCD19042A9
:1037B000FFBD0B43DB1803431343F5D0C94349183E
:1037C000FFBD0000FF07000000B5FFF7CFFF01D0ED
:1037D000002000BD012000BD00B5FFF7C7FF8041FC
:1037E00000BDC04600B5FFF7C1FF01D9002000BDF4
:1037F000012000BD00B5FFF7B1FF01D9002000BDD9
:10380000012000BD00B5FFF7A9FF804100BD0120E8
:1038100040054A00121804D85A00121801D8002096
:1038200070470120704700207047000000210028E9
:1038300005D17047C1174840401AFAD0C90713B5DF
:10384000064B1B6898470CBC441CA2401005120B89
:103850000349091B09051943114310BD083800200D
:103860001F04000010B54C00620D8023D218DB004D
:10387000D21A5B057E2A10DD9E3A13DACC170903B3
:10388000490819435242D140640001341532202ABC
:1038900005DAD0400843604310BD002010BD084643
:1038A000604310BDC80FC018013810BD18B4044BD8
:1038B0005B6AFC46019308BD24DF293F001000002D
:1038C0000836002018B4044BDB6DFC46019308BD9C
:1038D0005CDF31400010000008360020C94211D3DF
:1038E00000B549004908002200F018F8002904D466
:1038F000002240428A41114600BD80210906002075
:1039000000BD000018B4044BDB6EFC46019308BDFB
:103910006CDF373F001000000836002018B4044B5D
:103920009B6FFC46019308BD78DF533F00100000F9
:103930000836002018B4044BDB6FFC46019308BD29
:103940007CDFBD3F001000000836002070B5132357
:103950001C78012C07D0012C0EDC022C02DC1C4A46
:103960001C4B9A6470BD00231F2BF4D89900184893
:10397000184A88500133F7E71748FFF725FC050080
:103980001648FFF721FC023803789B007F2B19DDD6
:10399000802229000F4800F0D7FC022CDDD1104B0B
:1039A0001A88B5231B029A4209D10E4B1A880E4B76
:1039B0009A4204D10D4B1A880D4B9A42CDD000206B
:1039C000FDF756FF0B4B0C4A30210C48FDF732FF38
:1039D000013A00100836002053440000534600000E
:1039E00054380000D8380000494600009C380000D8
:1039F0005946000028740410DC7404108874041004
:103A000007B56046002800D100BE01880A0A0230CE
:103A1000DF2AFAD1C9B2820804D3028840880004A0
:103A2000104300E00068024A5050039007BD0000B8
:103A3000083600200FB403BC0CBCF0B50124E40729
:103A4000634000E0F0B50C0DCF0F661E3605891BF4
:103A5000640503D3C943404200D30131640D03D050
:103A6000661CF60A07D0E41B00207F00791C89073A
:103A70008912803C24031D0DDF0F6E1E36059B1B33
:103A80006D0503D3DB43524200D301336D0D03D0E8
:103A90006E1CF60A07D0ED1B00227F007B1C9B07E3
:103AA0009B12803D2D032F1B661B58D4A446202E4D
:103AB00046DA20371400BC401D00BD40F2403341BF
:103AC0002A4380185941CB0F05D0C943C043002277
:103AD00064425041514162464D0D28D10D0D07D130
:103AE00000281FD0241940414941013A0D0DF9D059
:103AF000640006D3013000D30131002C01D140080D
:103B00004000013A0BD4941CE40A04D1120511447C
:103B1000DB071944F0BDD907204B194300E0D90752
:103B20000020F0BD0029DDD1002CDBD1F0BD013239
:103B3000C6074008CD0728434908002EE1D0D9E741
:103B40003C2E29DA203E40371400BC4000D001242E
:103B5000F24014431A00BB401C43D317ACE7AC46F9
:103B6000202F08DA20360400B4400D00B540F8409C
:103B700039412843A5E73C2F0CDA203F40360400AA
:103B8000B44000D00124F84004430800B1400C4385
:103B9000C117EAE710001900002494E70000F07F45
:103BA000F0B50C0D661E3605891BE60A6405640D2A
:103BB00002D0651CED0A04D0002001210905803CDB
:103BC0002403A4461C0D671E3F05DB1BE70A6405A2
:103BD000640D02D0651CED0A04D0002201231B05F0
:103BE000803C24037740644497B484B296B2744313
:103BF000070C7E43150C6F4380B26843361802D31E
:103C0000012000043F183004350C00197D41844622
:103C100088B29AB250430C0C62431F0C7C438EB2A4
:103C20007E43921902D301263604A4191604170CF8
:103C30003618674101BC81B29AB25143040C624309
:103C40001B0C5C4380B25843121802D301200004BD
:103C500024181004130C401863412D185E410020F5
:103C6000474106BC88B293B258430C0C6343120C14
:103C7000544389B251435B1802D3012109046418EB
:103C800019041A0C091862416D1856410020474169
:103C900018BCF902720D1143F0026A0D1043ED02D7
:103CA0000A0D03D16D1940414941013B124E9B1B46
:103CB0007600B3420ED26D0007D301300026714169
:103CC0006646354301D1400840001B05C918E4078A
:103CD0002144F0BD0BDA013306D1013004D10131AA
:103CE0004F0D01D04908F2E7E1070020F0BD013691
:103CF00031050020EBE70000FF030000F0B51C0DCC
:103D0000671E3F05DB1BE70A6405640D02D0661CD5
:103D1000F60A04D0002201231B05803C2403D02591
:103D20002D060026F6432E661E096E66CE0FF61986
:103D3000B44649004F0D02D07E1CF60A03D0002085
:103D40000021403F3F033E1BB600B444013F7F05C6
:103D5000C91B49082E6F013676089C02950D254334
:103D60007543ED137543AD1301356D10F603761BE6
:103D70000CB4CC02450D2C43A2B2B3B25A43270C6B
:103D80007B43350C6F43A4B26C431B1902D301244F
:103D900024043F191C041D0CA4187D4124196D41F5
:103DA000009A91B2ACB26143170C7C432B0C5F4379
:103DB00092B25A43A41802D301221204BF1822045B
:103DC000230C52187B41019C6C431B19520ED901E4
:103DD0000A434401A01A81B2B2B2514303145A43B8
:103DE000360C734387B27743D617D21900277E412A
:103DF00036049B191704160C7F185E417316ED18D4
:103E0000F301002680337541A90F06D16400690AC9
:103E1000E8055B0A184309D22FE00422944480335A
:103E20007541A90AA8059B0A184326D34041494178
:103E30002404009A019B0D005543641B4343E41A7C
:103E400095B286B27543170C7E43030C5F4392B262
:103E50005A43B61802D301221204BF183204330C9D
:103E600052197B4152429C41002C02D40022013065
:103E700051414008CA071043490802B06246D707BB
:103E80009210084BD218084B9A4203D21205891897
:103E9000C919F0BD0020002A01DC3900F0BD013352
:103EA0001905F5E7FD030000FE070000624618CA89
:103EB000944600291ADAC01861415B463B415C46D2
:103EC000B4405246FA40224344464D4662416B415B
:103ED000904699462B46B3403D41FC401C43524618
:103EE0005B46A241AB4192469B467047C01AA14136
:103EF0004B463B414C46B4404246FA40224354466E
:103F00005D4662416B4192469B462B46B3403D4124
:103F1000FC401C4342464B46A241AB419046994669
:103F20007047002000217047002200B5203200F0C9
:103F300010F8080000BD002200B500F00CF8CA1708
:103F40009A4200D100BDD8430121C907414000BDBC
:103F500000220B15E5D410B5944600F0A5F8141412
:103F6000013400DA0021CB17134C20476244343A65
:103F70000CD40C2A07DA04009140904052422032BF
:103F8000D440214310BDD843D94310BD203207D4BB
:103F90000C469440524220321141D040204310BD83
:103FA0000800C917203203D452422032104110BDFC
:103FB0001800190010BD00006D3F00104A00520D9E
:103FC000144BD21A13DDFF2A1EDAD205CB0FDB0702
:103FD0001A43C300400F0903490A084310435B001A
:103FE00001D301D0013070474308FBD2704702D0A3
:103FF000C80FC00770470A0312130132F8D1420FED
:10400000072AF5D1012200E0FF22C80F0002801824
:10401000C00570478003000000210A00002104E071
:1040200000210A00C11704E00022002306E0C04678
:104030000022CB1758405940C01A994130B5184C4E
:10404000A21A002903D1010010D00020203A4C15FB
:1040500012D104D2013A001849414C0DFAD3114C47
:10406000A24204D212058918DB07C91830BDD24319
:10407000520D00200021F5E703D4013A0018494110
:10408000FBD50B324405C00A4D052843C90A64001C
:1040900003D0002460416141E1E7E0D34408F8E740
:1040A00032040000FE0700000A0DCC0F531E1B0552
:1040B000C91A520503D3C943404200D30131520DFE
:1040C00003D0531CDB0A07D0121B00206400611CC4
:1040D00089078912803A1203014BD21A70470000F7
:1040E000FF03000051434343C9188C46110C83B2AF
:1040F0004B4310B4040C614392B280B2504362430C
:104100001C041B0C001910BC59411304120CC018DC
:10411000514161447047000007B548404140484064
:1041200001E0C04607B54200120E03D0FF2A03D1BA
:10413000420218D8C00DC0054A00120E03D0FF2A53
:1041400003D14A020FD8C90DC9050122414005D447
:10415000414001D5814207BD884207BD014349184E
:1041600001D0C043001807BD00B5FFF7DBFF01D049
:10417000002000BD012000BD00B5FFF7D3FF01D92D
:10418000002000BD012000BD01231B064200D21803
:1041900004D84A00D21801D8002070470120704787
:1041A00070B513231D782A48FFF70EF80400012D7F
:1041B00011D0012D09DDA31E1B789B007F2B40DD54
:1041C00080222100234800F0BFF82348FEF7F4FFC7
:1041D000224B186070BD542201001E4800F0B4F854
:1041E0001F4B1A881F4B9A421CD1A7239B011A8888
:1041F0001D4B9A4216D11D4B1A881D4B9A4211D164
:104200001C4B1A8894239B019A420BD11A4B1A8893
:104210001A4B9A4206D11A4B1A681A4B9A4201D18C
:10422000152307E01848FDF723FB99001748094AB2
:10423000885001331F2BF8D9144A064B1A62DA61F1
:10424000B7E7134B134A42211348FDF7F3FAC04670
:1042500053460000083700204C3300000838002087
:10426000EE290000C40F0000C20D0000962B0000D4
:10427000C0B50000182B0000CC2A000010B50000CB
:10428000FC2C000051ED876400A404109D42001036
:10429000F0740410787504102475041007B5604696
:1042A000002800D100BE01880A0A0230DF2AFAD1B4
:1042B000C9B2820804D3028840880004104300E099
:1042C0000068024A5050039007BD000008370020E4
:1042D00070B504000A4E300042F052FA200035F06A
:1042E000DDF80500300042F0DBF9002D05D02C1977
:1042F000044B9C4201D8280070BD0348FDF7B8FA72
:10430000301D0020000004208C75041070B50400DE
:10431000054D280042F034FA200035F0C9F8280095
:1043200042F0BEF970BDC046301D00200148042196
:10433000014B184760120020D9310010014B1B6857
:104340001847000060120020014B5B68184700000E
:1043500060120020F8B507000D001600437C002B0A
:1043600002D0002400200CE00368110028009847C8
:104370002DE03B7C10E0022115483B689847601C0B
:104380000134B44214DA002CF3DD2B19013B1B7805
:104390000D3B5A425341DBB22A5D0A2AF0D1002B71
:1043A000EED1A042E7DA211A28183B689847E2E7E5
:1043B000B04203DA311A28183B689847002E06DD10
:1043C000AD19013D2B780D3B5A4253413B74F8BD6A
:1043D0001C76041070B505000368002B16D00C4B3A
:1043E0001C6805E0290004C92000FFF7B3FFE4685A
:1043F000002C09D02368002BF9D0064B1B68002B3A
:10440000F0D0A342F3D1EDE700232B6070BDC0468E
:10441000C0350020C435002070B505000C000B68C5
:10442000802B05D021684B1C23606418257170BD5A
:104430000800FFF7CFFFF5E7F0B583B007000E00E7
:104440000092019328E0A368002B04D031003800CB
:104450009847002827DCE468002C06D0134B1D6821
:10446000002DF0D0A542F6D1EDE701200021FCF7A8
:1044700021FE0099019A0E4B5B6A9A4209D80C48BA
:10448000806A88420BD29A4201D0012302E00023C5
:1044900000E00023002B04D1064B1C68DCE701235D
:1044A000F8E70120404203B0F0BDC046C43500200B
:1044B00000400540C035002010B582B0D0231B0657
:1044C00000241C5701A9074842F02AF9002806D108
:1044D000019B9C4203D0034842F052F9012002B0F4
:1044E00010BDC046381D002010B5024842F0D8F873
:1044F00010BDC046381D0020F0B5C64600B582B0DC
:1045000006000D001700FFF7D7FF80466B1C02D096
:10451000184B1C680DE0300036F05AFF0500F7E735
:104520006B46D91D0A230B7001222000FFF712FFF2
:10453000E468002C10D02368002BF9D00E4B1B68C8
:10454000002B01D0A342F3D12A0031002000FFF755
:1045500001FF002FECD0E3E74346002B06D1681E95
:104560008541E8B202B004BC9046F0BDFFF7BCFF45
:10457000F5E7C046C0350020C435002010B5030063
:1045800008001100002B05D1044B1A685B68FFF787
:1045900053FF10BD01204042FBE7C046206B0410D2
:1045A00010B50B001400012806D1002221001800CC
:1045B000FFF7A2FF200010BD01204042FBE70000F2
:1045C0000C4B1A681300002B0BD0834202D01A0048
:1045D000DB68F8E7002903D1DB68D3600023C36000
:1045E00070470029FCD0002A01D0D060F8E7014BC9
:1045F0001860F5E7C035002010B5064B1C6800E0D8
:10460000E468002C04D06368002BF9D09847F7E7E2
:1046100010BDC046C035002070B5050036F0D8FE8C
:104620000400012201002800FFF766FFFFF7E4FF06
:10463000200070BD70B5A2B004000E00FFF73CFF73
:1046400005008422002101A8FFF778FE3300220034
:1046500001A90848FEF798FD040001A8FFF7BAFE7B
:10466000FFF7CAFF002D02D1200022B070BDFFF776
:104670003BFFF9E7194400100FB400B583B004A95B
:1046800001C90191FFF7D6FF03B008BC04B0184779
:1046900010B500F083F810BDF0B583B000251AE026
:1046A0006B4607330D241C70002403E01F7817604D
:1046B00001340133002C1CD19769BF06FCD4F5E707
:1046C0001E78166001340133002C03D19669B606BA
:1046D000FCD4F5E701358D4210DA094B1A68465DC6
:1046E000084BD3185C4263415B00074C1B5FB3422D
:1046F000D6D06B4607331E700024E5E703B0F0BD4B
:10470000FC3500200080FCBF04360020F0B583B0EB
:10471000070000200DE09369DB06FCD413682B70C2
:1047200001340135002CF6D06B4607331B7803703B
:10473000300088420CDA094B1A68936910252C0066
:104740001C401D4204D1461C38186B46DD1DE9E7AC
:10475000002801D003B0F0BD0338FBE7FC35002092
:1047600070B515001C000B4B1860FBF71DFF002DEA
:1047700006DA002C09DA01210748FFF721FF70BD96
:1047800002212800FBF75EFEF3E702212000FBF781
:1047900059FEF0E7FC3500207012002010B5064BE2
:1047A0001B78064B1B78E1210123002249020448B3
:1047B000FFF7D6FF10BDC046E4360510E8360510F9
:1047C00000400340F0B5D646474680B583B08246E8
:1047D00088460620FDF766F90700022400E02C0059
:1047E000FE2C1DD801970026A51C28024246002356
:1047F0000021FFF777FC002904D1B142EFD1019BE2
:104800009842ECD980256D00012D0CD96E1E210037
:1048100071433800FEF724FD404504D83500F3E726
:1048200080256D00F0E753461C616B1E1B0252464B
:1048300012685340FF22120213408020400152466A
:1048400010430360290061433800FEF709FD03B0FF
:104850000CBC90469A46F0BD10B50400144B98422B
:1048600022D080229202134B1A60134B1A60134B12
:104870009B6810009843FAD12000FFF7A3FF22683D
:1048800007235340CF221A4080235B0123431A6041
:104890002200243280239B011A4303211160043437
:1048A0001C430223236010BD80225202DBE7C04676
:1048B00000C0034000E0004000F0004000C00040A5
:1048C00003BD10B50400FDF7F9FAA04710BDD023D1
:1048D0001B061B6D9B07FAD5D0231B06586540BFEE
:1048E0007047D0231B061B6DDB0701D420BFF8E700
:1048F000D0231B06986D704770B586B000230093D7
:104900000193013302930392049105900F20FDF768
:104910001DF9060000210F20FDF734F9002500E005
:104920000025AB006A469C58002C0FD02000FFF7F2
:10493000CEFFFFF7D6FF8442F2D10135052DF0D925
:1049400031000F20FDF71EF906B070BDD0231B0605
:104950001B6DDB0703D5D0231B069B6DF6E740BF1D
:10496000E4E7000010B50B00910711D103218A4341
:104970009A1811000C390860100008380360043AD6
:10498000064B1360064B9A680648FFF7B5FF10BD4B
:10499000054B064A6E210648FCF74CFFC348001041
:1049A00000ED00E0C1480010C8760410E476041061
:1049B0007876041010B5064A064B9A4205D31100CA
:1049C00080221201FFF7CEFF10BD01214942F7E717
:1049D0000008042000000420F0B5DE4657464E468D
:1049E00045460122E0B5DF4F00243800DE4B83B09E
:1049F0001A70DE4B7C6098461B681C309D68DC4B4F
:104A0000BC603B60FC603C617C61BC619B4601F02A
:104A10001FF9D84BD84E9A463B6001235B4299461A
:104A20007B6243461B683D625D6830005B46746094
:104A30003360B460F46034617461B4611C3001F0BF
:104A400007F9534633604B46736243463562CB4D9C
:104A50005A4628001B682A60DB686C60AC60EC601A
:104A60002C616C61AC611C30019301F0F1F8019B89
:104A700052462B624B466B62C14B2A609946180026
:104A800012F0D6F94B4678221C67043B9C52083240
:104A90009C5004329C5004329C50DC67B94C390065
:104AA0002200143248461C605A6012F051F9B64F89
:104AB000380012F0BDF93B0000227C21083B5A521D
:104AC00004315A5004315A5004315A5004315A506A
:104AD000AE4938001960143199603A6731005A6064
:104AE00012F036F9AA4E300012F0A2F90022782115
:104AF000331F5A5208315A5004315A5004315A5017
:104B00003267B26722001432290030001C60326024
:104B100012F01EF99F4E300012F08AF9002278211F
:104B2000331F5A5208315A5004315A501C60043114
:104B300014345A50300029003267B267346012F0E2
:104B400007F980229449954B92019967944B954FB0
:104B50001869596702431A614346002438001B68EC
:104B60007C609D68904BBC603B60FC603C617C61FC
:104B7000BC611C309B4601F06BF88C4B8C4E9A4606
:104B80003B6001235B4299467B6243461B683D6262
:104B90005D6830005B4674603360B460F46034611B
:104BA0007461B4611C3001F053F8534633604B46D6
:104BB000736243461B683562DB687E4D9846280069
:104BC0005B466C602B60AC60EC602C616C61AC612E
:104BD0001C3001F03DF853462B6043462B624B4698
:104BE0006B62754B9846180012F022F943467C22FE
:104BF0001C675C67043B9C5404329C5004329C50FC
:104C000004329C5004329C506C4C39002200143207
:104C100040461C605A6012F0F5F8694F380012F0F7
:104C200007F93B0000228021083B5A5404315A50B6
:104C300004315A5004315A5004315A5061493800F5
:104C40001960143199603A6731007A675A6012F03E
:104C5000D9F85D4E300012F0EBF800227C21331FB2
:104C60005A5404315A5004315A5004315A500431C4
:104C70005A503267726722001432290030001C60DB
:104C8000326012F0BFF8514E300012F0D1F800221D
:104C90007C21331F5A5404315A5004315A50043184
:104CA0005A501C60043114345A50300029003267C5
:104CB0007267346012F0A6F880224549454B920194
:104CC0009967454B1869596702431A61434A13684B
:104CD0000133136003B03CBC90469946A246AB46F4
:104CE000F0BD2D4B3E4A48465A6012F0F3F828F0CA
:104CF00081FF3C4B3C4A30005A6012F0EBF828F040
:104D000079FF354B384A30005A6012F0E3F828F04A
:104D100071FF304B344A38009A6012F0DBF828F00B
:104D200069FF2B4B304A40465A6012F0D3F828F006
:104D300061FF2E4B2A4A30005A6012F0CBF828F05F
:104D400059FF174B264A30005A6012F0C3F828F07A
:104D500051FF124B224A38009A6012F0BBF828F03B
:104D600049FFC046302E0020841200201813002076
:104D700018A40410A0990410E02D0020082E002093
:104D800020320020F0A204107C3000206C9B041024
:104D900008310020943100201C32002074300020A3
:104DA00004310020A82E002058A40410E09904101B
:104DB000582E0020802E00206034002020A30410F4
:104DC000B03200209C9B041040330020D0330020E0
:104DD0005C340020A83200203C330020403000200A
:104DE000BC9A0410CC330020CC9A041090310020DF
:104DF000064A10B513680400591C1160002B01D03D
:104E0000200010BDFFF7E8FDFAE7C0464030002063
:104E1000104A10B513680400591E1160022B01D00E
:104E2000200010BD0C481CF0D3FF0C481CF0D0FF34
:104E30000B481CF0CDFF0B481DF012F80A481DF07E
:104E40000FF80A481DF00CF8EAE729F077F829F086
:104E5000AFF8E5E7403000201C320020043100208C
:104E6000903100205C3400203C330020CC33002003
:104E70007047C04610B5040028F0B8FD200010BDF2
:104E8000044A0B6812680360934202D01A68013228
:104E90001A607047C02F002010B5064C206800280B
:104EA00000D010BD2000002203492AF0D3FA206868
:104EB000F7E7C046C82F0020087704100048704765
:104EC00008770410416870B50500002916D0836882
:104ED000002B10D00024354EA2005058002805D0D9
:104EE00043685A1E4260012B36D0AB680134A3429E
:104EF000F2D8002902D0080028F080FDE9680029D6
:104F000016D0AB68002B10D00024284EA2005058B9
:104F1000002805D043685A1E4260012B24D0AB689C
:104F20000134A342F2D8002902D0080028F066FD1F
:104F30002B690024002B0DD01859002802D028F02E
:104F40005DFD2B690434182CF6D1002B02D018001B
:104F500028F054FD280070BD03685B68B3420BD194
:104F600028F044FD6968C0E703685B68B34206D176
:104F700028F03CFDE968D2E798476968B5E79847AB
:104F8000E968CCE728F0DAFF29F012F86968ACE7A5
:104F900028F0D4FF29F00CF8E968C0E74B1C02D1D7
:104FA00028F04CFFFAE728F025FEC046754E0010A9
:104FB0000E4A0B68126870B504000D00934202D0CF
:104FC0001968013119602668B24204D03268511E56
:104FD0003160012A02D02000236070BD3000FFF74D
:104FE00071FF300028F002FD2B68F4E7C02F00208D
:104FF0000A4B70B51B68056804009D4204D02B68FD
:105000005A1E2A60012B01D0200070BD2800FFF736
:1050100059FF280028F0EAFCF6E7C046C02F002020
:10502000F0B54E46DE4657464546E0B583B0161EFF
:10503000009000D1E6E00C68002C04D1A84B1A685F
:10504000541C1C600C60009A671E9368013BBB42B5
:105050005CD2E31C994653689B46A24B994500D805
:10506000DCE001235B429A46504629F07FFC009B1E
:1050700080469B689C46002B0AD0009B586863467C
:10508000990000234546C258EA5004339942F9D1A9
:10509000E14509D963460021A2009B000C3243443C
:1050A000424402C39A42FCD1009D5046EB680193F2
:1050B00029F05CFCAB689C46002B09D0009BD968AA
:1050C00063469A000023CD58C55004339A42FAD162
:1050D000E14509D963460021A2009B000C32C318A8
:1050E000821802C39A42FCD14B46009A9360434611
:1050F00053605B46D060002B02D0584628F07EFCFF
:10510000019B002B02D0180028F078FC7368BF00C8
:1051100001337360009B5B68984647443B68BA461E
:105120009946002B48D0704A116800293DD06C4840
:10513000844610E057683B68002B05D163466546FE
:105140001B6801332B603B609C4200D173E0916887
:105150000832002929D00B68002B03D103680133E2
:1051600003600B609C42E5D151680C68002C04D1AF
:105170005B4A13685C1C14600C60013CA40044444E
:105180002368002B11D030000CF0A4FE4368804649
:1051900001334360206843685A1E4260012B6FD080
:1051A0004346236053461B6899464B4649465B6815
:1051B0005A1E4A60012B35D053461E60009B9A68E8
:1051C000002A1FD0D968494B00240027984605E0E3
:1051D0001F60009B9A680134A24213D9A6008B1964
:1051E00018680028F7D04268551E4560012AEFD1A3
:1051F00003685B6843450CD128F0F8FB009BD96835
:105200008B19E5E703B03CBC90469946A246AB46F5
:10521000F0BD9847009BD9688B19D9E74B469B0096
:105220009A4621E70B68314A5B684846934225D18C
:1052300028F0DCFBC0E70C68002C04D1284A136876
:105240005C1C14600C60013CA40044442368002BE7
:10525000ABD0300004F0B4FC4368804601334360B7
:10526000206843685A1E4260012B99D103681F4A87
:105270005B6893420BD128F0B9FB91E798479BE715
:1052800003681A4A5B689342F5D0984788E79847C5
:1052900086E728F053FE404628F0B0FB29F0C6FA16
:1052A00028F04CFE28F084FE86E728F047FE28F020
:1052B0007FFEAFE728F042FE28F07AFE70E728F084
:1052C0003DFE28F075FE6BE728F072FE28F092FC98
:1052D0004B1CFBD128F0B2FDFAE7F9E7F8E7C0462E
:1052E000C42F0020FEFFFF1F28770410754E00100A
:1052F000F0B5C64600B53D4F80463B780D00140022
:10530000BFF35B8FDB0744D5394A1168002934D0DD
:10531000384807000EE056683368002B03D13B681D
:1053200001333B603360013B9C423BD091680832C3
:10533000002922D00B68002B03D1036801330360DE
:105340000B60013B9C42E6D152681368002B45D0AC
:105350004246D268A40014192168013B002932D0CA
:10536000002D07D02B68244A5B68280093423BD16C
:1053700028F03CFB04BC9046F0BD4346DA68A4002C
:1053800014192368002BEBD16B6801336B60256027
:10539000F0E7380029F082FA0028B5D0380029F06B
:1053A00099FAB1E70A68002A04D1124B1A6801324F
:1053B0001A600A602300541E4246D268A4001419E1
:1053C00021680029CCD16968481C68602560581C98
:1053D000D0D002319B0069609D50CBE705490B6836
:1053E00001330B601360B3E79847C3E73C1F00200D
:1053F00028770410C42F0020754E001003000068A9
:10540000002804D1034A1168481C10601860013854
:105410007047C046C42F002010B5084C2378BFF356
:105420005B8FDB0701D5064810BD200029F036FA56
:105430000028F8D0200029F04DFAF4E7341F0020AE
:10544000F0340020F0B530234E46DE465746454640
:10545000E0B5016083600600FA4800220100030005
:1054600089B0C03104C39942FCD17060F648002273
:1054700001000300C03104C38B42FCD1F060F3484B
:10548000002201000300183104C38B42FCD1F04C10
:1054900030610460FFF712FD022201002000FEF7D8
:1054A00053FFEC4C012300220021200005F06CFE8C
:1054B00022003000E849FFF7B3FDE84C012120004D
:1054C0002AF044F822003000E549FFF7A9FD012247
:1054D000E44BE4495A60E44BE2480B6000238B60E4
:1054E000CB600B744B618B61CB610B628B840021B1
:1054F0006433DE4CC154DE4BA060002120006260AA
:10550000236001F02BF822003000DA49FFF788FD14
:105510000123D94A30005360D84BD9491360FFF7B3
:105520007FFD0123D74A30005360D74BD749136022
:10553000FFF776FD0123D64C6360D64B2360FFF75F
:10554000ABFCA06022003000D349FFF769FDD34BCC
:10555000D34C9A465246D34B5146136001225346D0
:105560005A60002350468B60CB6000210382436168
:105570008361C361036243628362C3620363436303
:105580004333C154C84B81746260A0600022002183
:105590002000236000F0CAFB22003000C349FFF75F
:1055A0003FFDC34BC34C99464A46C34B4946136023
:1055B00001224B465A60002348468B60CB60002195
:1055C000038243618361C361036243628362C36296
:1055D000036343634333C154B84B81746260A0607A
:1055E000002200212000236000F050FB2200300048
:1055F000B349FFF715FD0123B24A30005360B24BA7
:10560000B2491360FFF70CFD0123B14A300053602B
:10561000B04BB1491360FFF703FD0123AF4D80226A
:105620006B60AF4B29002B600023AB60EB602B61FC
:105630006B61AB61EB612B626B62AB62EB622B6304
:105640006B63AB63EB632B646B64AB64EB642B65E4
:105650006B65AB65EB652B666B66AB66EB662B67C4
:105660006B67AB67AB500432AB500432AB500432C3
:10567000AB500432AB500432AB500432AB50043266
:10568000AB500432AB500432AB500432AB50043256
:10569000AB500432AB500432AB500432AB50043246
:1056A000AB50904C0432AB500432AB542000EB674B
:1056B000C33A12F08FF8220030008B49FFF7B0FC9C
:1056C00001238A4A30005360894B8A491360FFF7EF
:1056D000A7FC0123884A30005360884B8849136037
:1056E000FFF79EFC874C012120000AF00FFB2200EF
:1056F00030008549FFF794FC844C0121200005F01F
:1057000015FD220030008249FFF78AFC814C0121FF
:10571000200029F033FF220030007F49FFF780FC92
:105720007E4B01229B4659465A607D4B58460B6082
:1057300000238B60CB600B744B618B61CB610B6280
:105740004B628B6292214900764C4354764BA060A9
:10575000002120006260236000F076FF220030000C
:105760007249FFF75DFC0123714A30005360714BB1
:1057700071491360FFF754FC0123704A30005360F5
:105780006F4B70491360FFF74BFC01236E4C636055
:105790006E4B2360FFF780FBA060220030006C4955
:1057A000FFF73EFC6B4B0122984641465A606A4B1C
:1057B00040460B6000238B60CB600B744B618B61A8
:1057C000CB610B624B628B62CB620B634B638B636F
:1057D000CB636C21614C4354614B6260A06000223A
:1057E00000212000236000F089FB220030005D4989
:1057F000FFF716FC5C4F5D4B6C213B6000230122E0
:105800005B4C7B54BB60FB603B747B61BB61FB61A9
:105810003B627B62BB62FB623B637B63BB63FB639C
:10582000544B7A6062600021002220002360A76050
:1058300000F014FB220030004F49FFF7F1FB012379
:105840009CE0C046002D0020102C0020F82B0020EA
:10585000EC240020F8240020B82F0020D02C0020B9
:1058600020300020642000202C7804106C1F0020C1
:10587000A0890410F02F0020C02D0020909D04105E
:1058800030300020D02D0020CC9D04103830002076
:10589000E82C002084890410E02F002084230020BD
:1058A00014200020C8770410F8890410D02F00209D
:1058B000C823002020200020B8770410C4890410D9
:1058C000D42F0020B41F0020488A0410003000208C
:1058D000C41F0020608A041008300020F42100203A
:1058E000FC9D0410D41F0020002F0020841F0020E6
:1058F000788A0410F82F0020941F0020FC9E0410CA
:105900005C3000204C1F0020E82F002018270020CA
:10591000BC2F0020DC2C002024300020CC200020D4
:105920003C780410781F002084960410F42F002087
:10593000C82D002014A7041034300020D82D0020DA
:1059400050A704103C300020F42C0020689604106E
:10595000E42F00200C240020E87704102C200020E5
:10596000DC960410D82F00207C240020D877041067
:1059700038200020A8960410DC2F0020854A300033
:105980005360854B85491360FFF74AFB0123844A26
:1059900030005360834B84491360FFF741FB0123C0
:1059A000824C80226360824B210023600023A3602D
:1059B000E36023616361A361E36123626362A362C5
:1059C000E36223636363A363E36323646364A364A5
:1059D000E36423656365A365E36523666366A36685
:1059E000E36623676367A367A3500432A3500432BE
:1059F000A3500432A3500432A3500432A350043203
:105A0000A3500432A3500432A3500432A3500432F2
:105A1000A3500432A3500432A3500432A3500432E2
:105A2000A3500432A3500432A3500432A35461485B
:105A3000E367C33A1DF0BCFB30005E4A5E49FFF7E6
:105A4000EFFA01235D4A300053605D4B5D491360FE
:105A5000FFF7E6FA01235C4A300053605B4B5C4978
:105A60001360FFF7DDFA01215A4810F067FE30009D
:105A7000584A5949FFF7D4FA0123584A3000536075
:105A8000574B58491360FFF7CBFA0123564A3000B1
:105A90005360564B56491360FFF7C2FA0123554A2B
:105AA00030005360544B55491360FFF7B9FA012396
:105AB000534A30005360534B53491360FFF7B0FA19
:105AC000524B30000293534603934B4604935B467C
:105AD0000593434602A90693079701F0B1FCF368CA
